{
  "contractName": "DappToken",
  "abi": [
    {
      "constant": true,
      "inputs": [],
      "name": "totalSupply",
      "outputs": [
        {
          "name": "",
          "type": "uint256"
        }
      ],
      "payable": false,
      "stateMutability": "view",
      "type": "function"
    },
    {
      "inputs": [],
      "payable": false,
      "stateMutability": "nonpayable",
      "type": "constructor"
    }
  ],
  "bytecode": "0x608060405234801561001057600080fd5b5062989680600081905550609e806100296000396000f300608060405260043610603f576000357c0100000000000000000000000000000000000000000000000000000000900463ffffffff16806318160ddd146044575b600080fd5b348015604f57600080fd5b506056606c565b6040518082815260200191505060405180910390f35b600054815600a165627a7a72305820c38a9ffac7b601fb29e3f77184d5fbb7fc0fbe5a7e59acef0cd3c7c58d9e49e40029",
  "source": "pragma solidity ^0.4.2;\r\n\r\ncontract DappToken {\r\n\t//Constructor\r\n\t// Set the total number of tokens\r\n\t// Read the total numbers of tokens\r\n\tuint256 public totalSupply;\r\n\r\n\tfunction DappToken() public {\r\n\t\ttotalSupply = 10000000;\r\n\t}\r\n\r\n}",
  "sourcePath": "C:\\token-sale\\contracts\\DappToken.sol",
  "compiler": {
    "name": "solc",
    "version": "0.4.23+commit.124ca40d.Emscripten.clang"
  },
  "schemaVersion": "2.0.0",
  "updatedAt": "2018-05-10T17:07:40.567Z"
}